{"abi":[{"type":"function","name":"exactInputSingle","inputs":[{"name":"params","type":"tuple","internalType":"struct ISwapRouter.ExactInputSingleParams","components":[{"name":"tokenIn","type":"address","internalType":"address"},{"name":"tokenOut","type":"address","internalType":"address"},{"name":"fee","type":"uint24","internalType":"uint24"},{"name":"recipient","type":"address","internalType":"address"},{"name":"deadline","type":"uint256","internalType":"uint256"},{"name":"amountIn","type":"uint256","internalType":"uint256"},{"name":"amountOutMinimum","type":"uint256","internalType":"uint256"},{"name":"sqrtPriceLimitX96","type":"uint160","internalType":"uint160"}]}],"outputs":[{"name":"amountOut","type":"uint256","internalType":"uint256"}],"stateMutability":"payable"}],"bytecode":{"object":"0x608060405234801561001057600080fd5b5061016c806100206000396000f3fe60806040526004361061001e5760003560e01c8063414bf38914610023575b600080fd5b610037610031366004610078565b50600f90565b60405190815260200160405180910390f35b80356001600160a01b038116811461006057600080fd5b919050565b803562ffffff8116811461006057600080fd5b600061010080838503121561008c57600080fd5b6040519081019067ffffffffffffffff821181831017156100bd57634e487b7160e01b600052604160045260246000fd5b816040526100ca84610049565b81526100d860208501610049565b60208201526100e960408501610065565b60408201526100fa60608501610049565b60608201526080840135608082015260a084013560a082015260c084013560c082015261012960e08501610049565b60e082015294935050505056fea26469706673582212202283bc68c0e540bf1d54e0a0949f2baed664bafe3bbdd7e78b364e468a7e10cc64736f6c63430008130033","linkReferences":{}},"methodIdentifiers":{"exactInputSingle((address,address,uint24,address,uint256,uint256,uint256,uint160))":"414bf389"},"id":8}