{"abi":[{"type":"function","name":"approve","inputs":[{"name":"guy","type":"address","internalType":"address"},{"name":"amount","type":"uint256","internalType":"uint256"}],"outputs":[],"stateMutability":"payable"},{"type":"function","name":"balanceOf","inputs":[{"name":"","type":"address","internalType":"address"}],"outputs":[{"name":"","type":"uint256","internalType":"uint256"}],"stateMutability":"view"},{"type":"function","name":"deposit","inputs":[],"outputs":[],"stateMutability":"payable"}],"bytecode":{"object":"0x608060405234801561001057600080fd5b50610118806100206000396000f3fe60806040526004361060305760003560e01c8063095ea7b314603557806370a08231146046578063d0e30db0146044575b600080fd5b60446040366004609c565b5050565b005b348015605157600080fd5b50606f605d36600460c3565b60006020819052908152604090205481565b60405190815260200160405180910390f35b80356001600160a01b0381168114609757600080fd5b919050565b6000806040838503121560ae57600080fd5b60b5836081565b946020939093013593505050565b60006020828403121560d457600080fd5b60db826081565b939250505056fea26469706673582212203f8d12139106d41b552530d4c35814d5c7e88536d3eb479f9d187d6848dbe1e364736f6c63430008130033","linkReferences":{}},"methodIdentifiers":{"approve(address,uint256)":"095ea7b3","balanceOf(address)":"70a08231","deposit()":"d0e30db0"},"id":9}