{"abi":[{"type":"constructor","inputs":[{"name":"_tokens","type":"tuple[]","internalType":"struct VaultStruct.Token[]","components":[{"name":"ticker","type":"bytes32","internalType":"bytes32"},{"name":"tokenAddress","type":"address","internalType":"address"},{"name":"chainLinkAddress","type":"address","internalType":"address"}]},{"name":"_swapRouter","type":"address","internalType":"address"}],"stateMutability":"nonpayable"},{"type":"function","name":"addToken","inputs":[{"name":"_ticker","type":"bytes32","internalType":"bytes32"},{"name":"_tokenAddress","type":"address","internalType":"address"},{"name":"_chainlinkAddress","type":"address","internalType":"address"}],"outputs":[],"stateMutability":"nonpayable"},{"type":"function","name":"createBag","inputs":[{"name":"_name","type":"string","internalType":"string"}],"outputs":[{"name":"","type":"address","internalType":"address"}],"stateMutability":"payable"},{"type":"function","name":"getAllBags","inputs":[],"outputs":[{"name":"","type":"tuple[]","internalType":"struct VaultStruct.Bag[]","components":[{"name":"id","type":"uint256","internalType":"uint256"},{"name":"addr","type":"address","internalType":"address"},{"name":"name","type":"string","internalType":"string"},{"name":"from","type":"address","internalType":"address"},{"name":"totalAmount","type":"uint256","internalType":"uint256"}]}],"stateMutability":"view"},{"type":"function","name":"getBagsFromOwner","inputs":[{"name":"_owner","type":"address","internalType":"address"}],"outputs":[{"name":"","type":"address[]","internalType":"address[]"}],"stateMutability":"view"},{"type":"function","name":"getBalance","inputs":[],"outputs":[{"name":"","type":"uint256","internalType":"uint256"}],"stateMutability":"view"},{"type":"function","name":"getTokens","inputs":[],"outputs":[{"name":"","type":"tuple[]","internalType":"struct VaultStruct.Token[]","components":[{"name":"ticker","type":"bytes32","internalType":"bytes32"},{"name":"tokenAddress","type":"address","internalType":"address"},{"name":"chainLinkAddress","type":"address","internalType":"address"}]}],"stateMutability":"view"},{"type":"function","name":"tokenList","inputs":[{"name":"","type":"uint256","internalType":"uint256"}],"outputs":[{"name":"","type":"bytes32","internalType":"bytes32"}],"stateMutability":"view"},{"type":"function","name":"tokens","inputs":[{"name":"","type":"bytes32","internalType":"bytes32"}],"outputs":[{"name":"ticker","type":"bytes32","internalType":"bytes32"},{"name":"tokenAddress","type":"address","internalType":"address"},{"name":"chainLinkAddress","type":"address","internalType":"address"}],"stateMutability":"view"},{"type":"event","name":"TipVaultClosed","inputs":[{"name":"_from","type":"address","indexed":true,"internalType":"address"},{"name":"_addr","type":"address","indexed":false,"internalType":"address"}],"anonymous":false},{"type":"event","name":"TipVaultCreated","inputs":[{"name":"_from","type":"address","indexed":true,"internalType":"address"},{"name":"_addr","type":"address","indexed":false,"internalType":"address"}],"anonymous":false},{"type":"event","name":"TipVaultDeposit","inputs":[{"name":"_from","type":"address","indexed":true,"internalType":"address"},{"name":"_addr","type":"address","indexed":false,"internalType":"address"},{"name":"_value","type":"uint256","indexed":false,"internalType":"uint256"}],"anonymous":false},{"type":"event","name":"TipVaultWithdraw","inputs":[{"name":"_from","type":"address","indexed":true,"internalType":"address"}],"anonymous":false}],"bytecode":{"object":"0x60806040523480156200001157600080fd5b5060405162003428380380620034288339810160408190526200003491620001e4565b60038054336001600160a01b031991821617909155600480549091166001600160a01b03831617905560005b82518110156200014a578281815181106200007f576200007f620002ea565b602002602001015160066000858481518110620000a057620000a0620002ea565b60209081029190910181015151825281810192909252604090810160002083518155918301516001830180546001600160a01b03199081166001600160a01b039384161790915593909101516002909201805490931691161790558251600790849083908110620001155762000115620002ea565b602090810291909101810151518254600181018455600093845291909220015580620001418162000300565b91505062000060565b50505062000328565b634e487b7160e01b600052604160045260246000fd5b604051606081016001600160401b03811182821017156200018e576200018e62000153565b60405290565b604051601f8201601f191681016001600160401b0381118282101715620001bf57620001bf62000153565b604052919050565b80516001600160a01b0381168114620001df57600080fd5b919050565b6000806040808486031215620001f957600080fd5b83516001600160401b03808211156200021157600080fd5b818601915086601f8301126200022657600080fd5b81516020828211156200023d576200023d62000153565b6200024d818360051b0162000194565b8281528181019350606092830285018201928a8411156200026d57600080fd5b948201945b83861015620002cc5780868c0312156200028c5760008081fd5b6200029662000169565b86518152620002a7848801620001c7565b84820152620002b8888801620001c7565b818901528552948501949382019362000272565b509650620002dc888201620001c7565b955050505050509250929050565b634e487b7160e01b600052603260045260246000fd5b6000600182016200032157634e487b7160e01b600052601160045260246000fd5b5060010190565b6130f080620003386000396000f3fe608060405260043610620000855760003560e01c8063904194a31162000054578063904194a314620001385780639ead722214620001aa578063aa6ca80814620001cf578063e585769b14620001f657600080fd5b806312065fe0146200008a5780631a2300fc14620000ad578063263fc8a814620000d45780633887f9911462000108575b600080fd5b3480156200009757600080fd5b50475b6040519081526020015b60405180910390f35b348015620000ba57600080fd5b50620000c56200021d565b604051620000a4919062000a99565b348015620000e157600080fd5b50620000f9620000f336600462000b5e565b62000392565b604051620000a4919062000bcb565b6200011f6200011936600462000c81565b62000408565b6040516001600160a01b039091168152602001620000a4565b3480156200014557600080fd5b50620001846200015736600462000d09565b60066020526000908152604090208054600182015460029092015490916001600160a01b03908116911683565b604080519384526001600160a01b039283166020850152911690820152606001620000a4565b348015620001b757600080fd5b506200009a620001c936600462000d09565b62000790565b348015620001dc57600080fd5b50620001e7620007b2565b604051620000a4919062000d23565b3480156200020357600080fd5b506200021b6200021536600462000d8b565b62000954565b005b60025460609060009067ffffffffffffffff81111562000241576200024162000be0565b604051908082528060200260200182016040528015620002b957816020015b620002a56040518060a001604052806000815260200160006001600160a01b031681526020016060815260200160006001600160a01b03168152602001600081525090565b815260200190600190039081620002605790505b50905060005b6002548110156200038c5760028181548110620002e057620002e062000dd2565b60009182526020822001546040805162910a8160e31b815290516001600160a01b03909216926304885408926004808401938290030181865afa1580156200032c573d6000803e3d6000fd5b505050506040513d6000823e601f3d908101601f1916820160405262000356919081019062000dfa565b8282815181106200036b576200036b62000dd2565b60200260200101819052508080620003839062000eeb565b915050620002bf565b50919050565b6001600160a01b03811660009081526020818152604091829020805483518184028101840190945280845260609392830182828015620003fc57602002820191906000526020600020905b81546001600160a01b03168152600190910190602001808311620003dd575b50505050509050919050565b600754600090819067ffffffffffffffff8111156200042b576200042b62000be0565b60405190808252806020026020018201604052801562000455578160200160208202803683370190505b5060075490915060009067ffffffffffffffff8111156200047a576200047a62000be0565b604051908082528060200260200182016040528015620004a4578160200160208202803683370190505b5060075490915060009067ffffffffffffffff811115620004c957620004c962000be0565b604051908082528060200260200182016040528015620004f3578160200160208202803683370190505b50905060005b6007548110156200065157600781815481106200051a576200051a62000dd2565b90600052602060002001548482815181106200053a576200053a62000dd2565b602002602001018181525050600660006007838154811062000560576200056062000dd2565b9060005260206000200154815260200190815260200160002060010160009054906101000a90046001600160a01b0316838281518110620005a557620005a562000dd2565b60200260200101906001600160a01b031690816001600160a01b0316815250506006600060078381548110620005df57620005df62000dd2565b9060005260206000200154815260200190815260200160002060020160009054906101000a90046001600160a01b031682828151811062000624576200062462000dd2565b6001600160a01b039092166020928302919091019091015280620006488162000eeb565b915050620004f9565b5060058054906000620006648362000eeb565b91905055506000600554863330878787600460009054906101000a90046001600160a01b0316604051620006989062000a37565b620006ab98979695949392919062000f13565b604051809103906000f080158015620006c8573d6000803e3d6000fd5b503360008181526020818152604080832080546001808201835582865284862090910180546001600160a01b0389166001600160a01b0319918216811790925581875282865284872080548216831790556002805493840181559096527f405787fa12a823e0f2b7631cc41b3ba8828b3321ca811111fa75cd3aa3bb5ace9091018054909516811790945590519283529394507f30c81f724517486447c665d96eb3b727bd46ba8b8093940f393d11ea4c3f01f1910160405180910390a25095945050505050565b60078181548110620007a157600080fd5b600091825260209091200154905081565b60075460609060009067ffffffffffffffff811115620007d657620007d662000be0565b6040519080825280602002602001820160405280156200082357816020015b6040805160608101825260008082526020808301829052928201528252600019909201910181620007f55790505b50905060005b6007548110156200094f576040518060600160405280600660006007858154811062000859576200085962000dd2565b90600052602060002001548152602001908152602001600020600001548152602001600660006007858154811062000895576200089562000dd2565b9060005260206000200154815260200190815260200160002060010160009054906101000a90046001600160a01b03166001600160a01b031681526020016006600060078581548110620008ed57620008ed62000dd2565b600091825260208083209091015483528201929092526040019020600201546001600160a01b0316905282518390839081106200092e576200092e62000dd2565b60200260200101819052508080620009469062000eeb565b91505062000829565b505090565b6003546001600160a01b03163314620009a05760405162461bcd60e51b815260206004820152600a60248201526937b7363c9030b236b4b760b11b604482015260640160405180910390fd5b604080516060810182528481526001600160a01b039384166020808301918252938516828401908152600087815260069095529284209151825551600180830180549287166001600160a01b03199384161790559251600290920180549290951691161790925560078054928301815590527fa66cc928b5edb82af9bd49922954155ab7b0942694bea4ce44661d9a8736c6880155565b6120e88062000fd383390190565b60005b8381101562000a6257818101518382015260200162000a48565b50506000910152565b6000815180845262000a8581602086016020860162000a45565b601f01601f19169290920160200192915050565b60006020808301818452808551808352604092508286019150828160051b87010184880160005b8381101562000b3757888303603f19018552815180518452878101516001600160a01b03908116898601528782015160a08987018190529162000b068388018362000a6b565b6060858101519092169188019190915260809384015193909601929092525050938601939086019060010162000ac0565b509098975050505050505050565b6001600160a01b038116811462000b5b57600080fd5b50565b60006020828403121562000b7157600080fd5b813562000b7e8162000b45565b9392505050565b600081518084526020808501945080840160005b8381101562000bc05781516001600160a01b03168752958201959082019060010162000b99565b509495945050505050565b60208152600062000b7e602083018462000b85565b634e487b7160e01b600052604160045260246000fd5b60405160a0810167ffffffffffffffff8111828210171562000c1c5762000c1c62000be0565b60405290565b604051601f8201601f1916810167ffffffffffffffff8111828210171562000c4e5762000c4e62000be0565b604052919050565b600067ffffffffffffffff82111562000c735762000c7362000be0565b50601f01601f191660200190565b60006020828403121562000c9457600080fd5b813567ffffffffffffffff81111562000cac57600080fd5b8201601f8101841362000cbe57600080fd5b803562000cd562000ccf8262000c56565b62000c22565b81815285602083850101111562000ceb57600080fd5b81602084016020830137600091810160200191909152949350505050565b60006020828403121562000d1c57600080fd5b5035919050565b602080825282518282018190526000919060409081850190868401855b8281101562000d7e57815180518552868101516001600160a01b03908116888701529086015116858501526060909301929085019060010162000d40565b5091979650505050505050565b60008060006060848603121562000da157600080fd5b83359250602084013562000db58162000b45565b9150604084013562000dc78162000b45565b809150509250925092565b634e487b7160e01b600052603260045260246000fd5b805162000df58162000b45565b919050565b6000602080838503121562000e0e57600080fd5b825167ffffffffffffffff8082111562000e2757600080fd5b9084019060a0828703121562000e3c57600080fd5b62000e4662000bf6565b825181528383015162000e598162000b45565b8185015260408301518281111562000e7057600080fd5b83019150601f8201871362000e8457600080fd5b815162000e9562000ccf8262000c56565b818152888683860101111562000eaa57600080fd5b62000ebb8287830188870162000a45565b60408301525062000ecf6060840162000de8565b6060820152608083015160808201528094505050505092915050565b60006001820162000f0c57634e487b7160e01b600052601160045260246000fd5b5060010190565b60006101008a83526020818185015262000f308285018c62000a6b565b6001600160a01b038b811660408701528a16606086015284810360808601528851808252828a0193509082019060005b8181101562000f7e5784518352938301939183019160010162000f60565b505084810360a086015262000f94818962000b85565b9250505082810360c084015262000fac818662000b85565b91505062000fc560e08301846001600160a01b03169052565b999850505050505050505056fe6080604052600180546001600160a01b0319167342000000000000000000000000000000000000061790553480156200003757600080fd5b50604051620020e8380380620020e88339810160408190526200005a916200059b565b60005b84518110156200033857604051806060016040528086838151811062000087576200008762000697565b60200260200101518152602001858381518110620000a957620000a962000697565b60200260200101516001600160a01b03168152602001848381518110620000d457620000d462000697565b60200260200101516001600160a01b03168152506006600087848151811062000101576200010162000697565b602002602001015181526020019081526020016000206000820151816000015560208201518160010160006101000a8154816001600160a01b0302191690836001600160a01b0316021790555060408201518160020160006101000a8154816001600160a01b0302191690836001600160a01b0316021790555090505060405180606001604052808683815181106200019e576200019e62000697565b60200260200101518152602001858381518110620001c057620001c062000697565b60200260200101516001600160a01b03168152602001848381518110620001eb57620001eb62000697565b60200260200101516001600160a01b03168152506007600086848151811062000218576200021862000697565b6020908102919091018101516001600160a01b03908116835282820193909352604091820160002084518155908401516001820180546001600160a01b03199081169286169290921790559390910151600290910180549093169116179055845160099086908390811062000291576200029162000697565b602090810291909101810151825460018101845560009384529190922001558251839082908110620002c757620002c762000697565b602002602001015160086000878481518110620002e857620002e862000697565b6020026020010151815260200190815260200160002060006101000a8154816001600160a01b0302191690836001600160a01b0316021790555080806200032f90620006ad565b9150506200005d565b50600a80546001600160a01b0319166001600160a01b038816179055600262000362888262000764565b506004979097555050600b80546001600160a01b039384166001600160a01b031991821617909155600080549690931695169490941790555062000830915050565b634e487b7160e01b600052604160045260246000fd5b604051601f8201601f191681016001600160401b0381118282101715620003e557620003e5620003a4565b604052919050565b600082601f830112620003ff57600080fd5b81516001600160401b038111156200041b576200041b620003a4565b602062000431601f8301601f19168201620003ba565b82815285828487010111156200044657600080fd5b60005b838110156200046657858101830151828201840152820162000449565b506000928101909101919091529392505050565b80516001600160a01b03811681146200049257600080fd5b919050565b60006001600160401b03821115620004b357620004b3620003a4565b5060051b60200190565b600082601f830112620004cf57600080fd5b81516020620004e8620004e28362000497565b620003ba565b82815260059290921b840181019181810190868411156200050857600080fd5b8286015b848110156200052557805183529183019183016200050c565b509695505050505050565b600082601f8301126200054257600080fd5b8151602062000555620004e28362000497565b82815260059290921b840181019181810190868411156200057557600080fd5b8286015b8481101562000525576200058d816200047a565b835291830191830162000579565b600080600080600080600080610100898b031215620005b957600080fd5b885160208a01519098506001600160401b0380821115620005d957600080fd5b620005e78c838d01620003ed565b9850620005f760408c016200047a565b97506200060760608c016200047a565b965060808b01519150808211156200061e57600080fd5b6200062c8c838d01620004bd565b955060a08b01519150808211156200064357600080fd5b620006518c838d0162000530565b945060c08b01519150808211156200066857600080fd5b50620006778b828c0162000530565b9250506200068860e08a016200047a565b90509295985092959890939650565b634e487b7160e01b600052603260045260246000fd5b600060018201620006ce57634e487b7160e01b600052601160045260246000fd5b5060010190565b600181811c90821680620006ea57607f821691505b6020821081036200070b57634e487b7160e01b600052602260045260246000fd5b50919050565b601f8211156200075f57600081815260208120601f850160051c810160208610156200073a5750805b601f850160051c820191505b818110156200075b5782815560010162000746565b5050505b505050565b81516001600160401b03811115620007805762000780620003a4565b6200079881620007918454620006d5565b8462000711565b602080601f831160018114620007d05760008415620007b75750858301515b600019600386901b1c1916600185901b1785556200075b565b600085815260208120601f198616915b828110156200080157888601518255948401946001909101908401620007e0565b5085821015620008205787850151600019600388901b60f8161c191681555b5050505050600190811b01905550565b6118a880620008406000396000f3fe6080604052600436106100df5760003560e01c80638d7eda3211610084578063b6b55f2511610056578063b6b55f2514610279578063c31c9c071461028c578063d6bc5942146102ac578063e585769b146102f457005b80638d7eda32146101c25780639ead72221461022f578063a4874d771461024f578063aa6ca8081461025757005b8063224e7462116100bd578063224e74621461012c578063378f289e1461014c5780633fc8cef31461016c578063893d20e8146101a457005b8062113e08146100e8578063048854081461010a57806312065fe0146100e857005b366100e657005b005b3480156100f457600080fd5b50475b6040519081526020015b60405180910390f35b34801561011657600080fd5b5061011f610314565b60405161010191906114f6565b34801561013857600080fd5b506100e661014736600461156b565b610427565b34801561015857600080fd5b506100f761016736600461156b565b6105cb565b34801561017857600080fd5b5060015461018c906001600160a01b031681565b6040516001600160a01b039091168152602001610101565b3480156101b057600080fd5b50600a546001600160a01b031661018c565b3480156101ce57600080fd5b5061020a6101dd36600461156b565b60066020526000908152604090208054600182015460029092015490916001600160a01b03908116911683565b604080519384526001600160a01b039283166020850152911690820152606001610101565b34801561023b57600080fd5b506100f761024a36600461156b565b610651565b6100e6610672565b34801561026357600080fd5b5061026c6107b9565b6040516101019190611584565b6100e661028736600461156b565b610947565b34801561029857600080fd5b5060005461018c906001600160a01b031681565b3480156102b857600080fd5b5061020a6102c7366004611606565b60076020526000908152604090208054600182015460029092015490916001600160a01b03908116911683565b34801561030057600080fd5b506100e661030f366004611628565b610a43565b6103586040518060a001604052806000815260200160006001600160a01b031681526020016060815260200160006001600160a01b03168152602001600081525090565b6040518060a001604052806004548152602001306001600160a01b031681526020016002805461038790611664565b80601f01602080910402602001604051908101604052809291908181526020018280546103b390611664565b80156104005780601f106103d557610100808354040283529160200191610400565b820191906000526020600020905b8154815290600101906020018083116103e357829003601f168201915b5050509183525050600a546001600160a01b03166020820152600354604090910152919050565b600a546001600160a01b0316331461045a5760405162461bcd60e51b815260040161045190611698565b60405180910390fd5b6040805160608082018352600080835260208084018281528486018381528784526006808452878520600180820180546001600160a01b039081168952600788528b89209a518b559551918a0180546001600160a01b031990811693881693909317905593516002998a018054831691871691909117905589519788018a528688528786018781529988018781528b885292909552955186559651815484169083161790559451939092018054909216929093169190911790555b6009548110156105c7578160098281548110610533576105336116bc565b9060005260206000200154036105b55760098054610553906001906116e8565b81548110610563576105636116bc565b906000526020600020015460098281548110610581576105816116bc565b600091825260209091200155600980548061059e5761059e611701565b600190038181906000526020600020016000905590555b806105bf81611717565b915050610515565b5050565b600081815260086020526040808220548151633fabe5a360e21b8152915183926001600160a01b039092169163feaf968c9160048083019260a09291908290030181865afa158015610621573d6000803e3d6000fd5b505050506040513d601f19601f82011682018060405250810190610645919061174a565b50919695505050505050565b6009818154811061066157600080fd5b600091825260209091200154905081565b600a546001600160a01b0316331461069c5760405162461bcd60e51b815260040161045190611698565b60005b6009548110156107b657600060066000600984815481106106c2576106c26116bc565b600091825260208083209190910154835282019290925260409081019091206001015490516370a0823160e01b81523060048201526001600160a01b03909116906370a0823190602401602060405180830381865afa158015610729573d6000803e3d6000fd5b505050506040513d601f19601f8201168201806040525081019061074d919061179a565b90506107a181600660006009868154811061076a5761076a6116bc565b60009182526020808320909101548352820192909252604001812060019081015490546001600160a01b0391821692911690610b3d565b505080806107ae90611717565b91505061069f565b50565b60095460609060009067ffffffffffffffff8111156107da576107da6117b3565b60405190808252806020026020018201604052801561082557816020015b60408051606081018252600080825260208083018290529282015282526000199092019101816107f85790505b50905060005b6009548110156109415760405180606001604052806006600060098581548110610857576108576116bc565b906000526020600020015481526020019081526020016000206000015481526020016006600060098581548110610890576108906116bc565b9060005260206000200154815260200190815260200160002060010160009054906101000a90046001600160a01b03166001600160a01b0316815260200160066000600985815481106108e5576108e56116bc565b600091825260208083209091015483528201929092526040019020600201546001600160a01b031690528251839083908110610923576109236116bc565b6020026020010181905250808061093990611717565b91505061082b565b50919050565b600a546001600160a01b031633146109715760405162461bcd60e51b815260040161045190611698565b6001546040516370a0823160e01b815233600482015282916001600160a01b0316906370a0823190602401602060405180830381865afa1580156109b9573d6000803e3d6000fd5b505050506040513d601f19601f820116820180604052508101906109dd919061179a565b1015610a235760405162461bcd60e51b81526020600482015260156024820152746e6f7420656e6f756768206d696e6572616c73202160581b6044820152606401610451565b600154610a3b906001600160a01b0316333084610c55565b6107b6610d5f565b600a546001600160a01b03163314610a6d5760405162461bcd60e51b815260040161045190611698565b604080516060810182528481526001600160a01b0393841660208083018281529486168385019081526000888152600683528581209451808655965160018087018054928b166001600160a01b0319938416178155935160029788018054918c1691841691909117815595835260079094529581209687559054868301805487169189169190911790559154949092018054909316939094169290921790556009805491820181559091527f6e1540171b6c0c960b71a7020d9f60077f6af931a8bbf590da0223dacf75c7af0155565b60008054610b569085906001600160a01b031687611274565b60408051610100810182526001600160a01b03868116825285811660208301908152610bb88385018181523060608601908152426080870190815260a087018d815260c088018b8152600060e08a0181815290549a5163414bf38960e01b81528a518a166004820152975189166024890152945162ffffff166044880152925187166064870152905160848601525160a48501525160c484015251831660e4830152939091169063414bf38990610104016020604051808303816000875af1158015610c26573d6000803e3d6000fd5b505050506040513d601f19601f82011682018060405250810190610c4a919061179a565b979650505050505050565b604080516001600160a01b0385811660248301528481166044830152606480830185905283518084039091018152608490920183526020820180516001600160e01b03166323b872dd60e01b1790529151600092839290881691610cb991906117c9565b6000604051808303816000865af19150503d8060008114610cf6576040519150601f19603f3d011682016040523d82523d6000602084013e610cfb565b606091505b5091509150818015610d25575080511580610d25575080806020019051810190610d2591906117e5565b610d575760405162461bcd60e51b815260206004820152600360248201526229aa2360e91b6044820152606401610451565b505050505050565b60095460009067ffffffffffffffff811115610d7d57610d7d6117b3565b604051908082528060200260200182016040528015610da6578160200160208202803683370190505b5060095490915060009067ffffffffffffffff811115610dc857610dc86117b3565b604051908082528060200260200182016040528015610df1578160200160208202803683370190505b5090506000610dfe611374565b90506000610e0a61142d565b90506000808060608180805b600954811015610f84576006600060098381548110610e3757610e376116bc565b600091825260208083209190910154835282019290925260409081019091206001015490516370a0823160e01b81523060048201526001600160a01b03909116906370a0823190602401602060405180830381865afa158015610e9e573d6000803e3d6000fd5b505050506040513d601f19601f82011682018060405250810190610ec2919061179a565b8b8281518110610ed457610ed46116bc565b6020026020010181815250506305f5e100898281518110610ef757610ef76116bc565b60200260200101518c8381518110610f1157610f116116bc565b6020026020010151610f239190611807565b610f2d919061181e565b8a8281518110610f3f57610f3f6116bc565b602002602001018181525050898181518110610f5d57610f5d6116bc565b602002602001015187610f709190611840565b965080610f7c81611717565b915050610e16565b50600954610f92908761181e565b945060005b60095481101561111657858a8281518110610fb457610fb46116bc565b6020026020010151111561110457610fcd600a8761181e565b868b8381518110610fe057610fe06116bc565b6020026020010151610ff291906116e8565b111561110457600061100560148861181e565b905060006110138a8361181e565b9050600060648c858151811061102b5761102b6116bc565b60200260200101518461103e919061181e565b61104c906305f5e100611807565b611057906062611807565b611061919061181e565b90506110b482600660006009888154811061107e5761107e6116bc565b60009182526020808320909101548352820192909252604001902060019081015490546001600160a01b03918216911684610b3d565b50600984815481106110c8576110c86116bc565b9060005260206000200154878760ff16815181106110e8576110e86116bc565b6020908102919091010152856110fd81611853565b9650505050505b8061110e81611717565b915050610f97565b506001546040516370a0823160e01b81523060048201526001600160a01b03909116906370a0823190602401602060405180830381865afa15801561115f573d6000803e3d6000fd5b505050506040513d601f19601f82011682018060405250810190611183919061179a565b8351600954919550611194916116e8565b61119e908561181e565b905060005b600954811015611267576111d4600982815481106111c3576111c36116bc565b906000526020600020015485611487565b61125557600060646111e7846062611807565b6111f1919061181e565b905061125283600160009054906101000a90046001600160a01b03166006600060098781548110611224576112246116bc565b600091825260208083209091015483528201929092526040019020600101546001600160a01b031684610b3d565b50505b8061125f81611717565b9150506111a3565b5050505050505050505050565b604080516001600160a01b038481166024830152604480830185905283518084039091018152606490920183526020820180516001600160e01b031663095ea7b360e01b17905291516000928392908716916112d091906117c9565b6000604051808303816000865af19150503d806000811461130d576040519150601f19603f3d011682016040523d82523d6000602084013e611312565b606091505b509150915081801561133c57508051158061133c57508080602001905181019061133c91906117e5565b61136d5760405162461bcd60e51b8152602060048201526002602482015261534160f01b6044820152606401610451565b5050505050565b60095460609067ffffffffffffffff811115611392576113926117b3565b6040519080825280602002602001820160405280156113bb578160200160208202803683370190505b50905060005b60095460ff82161015611429576113f760098260ff16815481106113e7576113e76116bc565b90600052602060002001546105cb565b828260ff168151811061140c5761140c6116bc565b60209081029190910101528061142181611853565b9150506113c1565b5090565b6000807313e3ee699d1909e989722e753853ae30b17e08c590506000816001600160a01b031663feaf968c6040518163ffffffff1660e01b815260040160a060405180830381865afa158015610621573d6000803e3d6000fd5b6000805b82518110156114cb57838382815181106114a7576114a76116bc565b6020026020010151036114b957600191505b806114c381611717565b91505061148b565b5092915050565b60005b838110156114ed5781810151838201526020016114d5565b50506000910152565b60208152815160208201526000602083015160018060a01b0380821660408501526040850151915060a0606085015281518060c086015261153e8160e08701602086016114d2565b60608601519091166080858101919091529094015160a08401525050601f91909101601f19160160e00190565b60006020828403121561157d57600080fd5b5035919050565b602080825282518282018190526000919060409081850190868401855b828110156115dd57815180518552868101516001600160a01b0390811688870152908601511685850152606090930192908501906001016115a1565b5091979650505050505050565b80356001600160a01b038116811461160157600080fd5b919050565b60006020828403121561161857600080fd5b611621826115ea565b9392505050565b60008060006060848603121561163d57600080fd5b8335925061164d602085016115ea565b915061165b604085016115ea565b90509250925092565b600181811c9082168061167857607f821691505b60208210810361094157634e487b7160e01b600052602260045260246000fd5b6020808252600a908201526937b7363c9037bbb732b960b11b604082015260600190565b634e487b7160e01b600052603260045260246000fd5b634e487b7160e01b600052601160045260246000fd5b818103818111156116fb576116fb6116d2565b92915050565b634e487b7160e01b600052603160045260246000fd5b600060018201611729576117296116d2565b5060010190565b805169ffffffffffffffffffff8116811461160157600080fd5b600080600080600060a0868803121561176257600080fd5b61176b86611730565b945060208601519350604086015192506060860151915061178e60808701611730565b90509295509295909350565b6000602082840312156117ac57600080fd5b5051919050565b634e487b7160e01b600052604160045260246000fd5b600082516117db8184602087016114d2565b9190910192915050565b6000602082840312156117f757600080fd5b8151801515811461162157600080fd5b80820281158282048414176116fb576116fb6116d2565b60008261183b57634e487b7160e01b600052601260045260246000fd5b500490565b808201808211156116fb576116fb6116d2565b600060ff821660ff8103611869576118696116d2565b6001019291505056fea2646970667358221220e674b5a3725b39c2b9abb87fe6bee49125d8764e3fea6417596e05156beaea4464736f6c63430008130033a264697066735822122062d38069b5e6c12ec39a402ec535fe472ba94769a10ae0154c7e0c6126a7076064736f6c63430008130033","linkReferences":{}},"methodIdentifiers":{"addToken(bytes32,address,address)":"e585769b","createBag(string)":"3887f991","getAllBags()":"1a2300fc","getBagsFromOwner(address)":"263fc8a8","getBalance()":"12065fe0","getTokens()":"aa6ca808","tokenList(uint256)":"9ead7222","tokens(bytes32)":"904194a3"},"id":1}