{"abi":[{"type":"constructor","inputs":[{"name":"_tokens","type":"tuple[]","internalType":"struct VaultStruct.Token[]","components":[{"name":"ticker","type":"bytes32","internalType":"bytes32"},{"name":"tokenAddress","type":"address","internalType":"address"},{"name":"chainLinkAddress","type":"address","internalType":"address"}]},{"name":"_swapRouter","type":"address","internalType":"address"}],"stateMutability":"nonpayable"},{"type":"function","name":"addToken","inputs":[{"name":"_ticker","type":"bytes32","internalType":"bytes32"},{"name":"_tokenAddress","type":"address","internalType":"address"},{"name":"_chainlinkAddress","type":"address","internalType":"address"}],"outputs":[],"stateMutability":"nonpayable"},{"type":"function","name":"createBag","inputs":[{"name":"_name","type":"string","internalType":"string"}],"outputs":[{"name":"","type":"address","internalType":"address"}],"stateMutability":"payable"},{"type":"function","name":"getAllBags","inputs":[],"outputs":[{"name":"","type":"tuple[]","internalType":"struct VaultStruct.Bag[]","components":[{"name":"addr","type":"address","internalType":"address"},{"name":"name","type":"string","internalType":"string"},{"name":"from","type":"address","internalType":"address"},{"name":"totalAmount","type":"uint256","internalType":"uint256"}]}],"stateMutability":"view"},{"type":"function","name":"getBagsFromOwner","inputs":[{"name":"_owner","type":"address","internalType":"address"}],"outputs":[{"name":"","type":"address[]","internalType":"address[]"}],"stateMutability":"view"},{"type":"function","name":"getBalance","inputs":[],"outputs":[{"name":"","type":"uint256","internalType":"uint256"}],"stateMutability":"view"},{"type":"function","name":"getTokens","inputs":[],"outputs":[{"name":"_tokens","type":"tuple[]","internalType":"struct VaultStruct.Token[]","components":[{"name":"ticker","type":"bytes32","internalType":"bytes32"},{"name":"tokenAddress","type":"address","internalType":"address"},{"name":"chainLinkAddress","type":"address","internalType":"address"}]}],"stateMutability":"view"},{"type":"function","name":"tokenList","inputs":[{"name":"","type":"uint256","internalType":"uint256"}],"outputs":[{"name":"","type":"bytes32","internalType":"bytes32"}],"stateMutability":"view"},{"type":"function","name":"tokens","inputs":[{"name":"","type":"bytes32","internalType":"bytes32"}],"outputs":[{"name":"ticker","type":"bytes32","internalType":"bytes32"},{"name":"tokenAddress","type":"address","internalType":"address"},{"name":"chainLinkAddress","type":"address","internalType":"address"}],"stateMutability":"view"},{"type":"event","name":"TipVaultClosed","inputs":[{"name":"_from","type":"address","indexed":true,"internalType":"address"},{"name":"_addr","type":"address","indexed":false,"internalType":"address"}],"anonymous":false},{"type":"event","name":"TipVaultCreated","inputs":[{"name":"_from","type":"address","indexed":true,"internalType":"address"},{"name":"_addr","type":"address","indexed":false,"internalType":"address"}],"anonymous":false},{"type":"event","name":"TipVaultDeposit","inputs":[{"name":"_from","type":"address","indexed":true,"internalType":"address"},{"name":"_addr","type":"address","indexed":false,"internalType":"address"},{"name":"_value","type":"uint256","indexed":false,"internalType":"uint256"}],"anonymous":false},{"type":"event","name":"TipVaultWithdraw","inputs":[{"name":"_from","type":"address","indexed":true,"internalType":"address"}],"anonymous":false}],"bytecode":{"object":"0x60806040523480156200001157600080fd5b5060405162003a1438038062003a148339810160408190526200003491620001e4565b60038054336001600160a01b031991821617909155600480549091166001600160a01b03831617905560005b82518110156200014a578281815181106200007f576200007f620002ea565b602002602001015160056000858481518110620000a057620000a0620002ea565b60209081029190910181015151825281810192909252604090810160002083518155918301516001830180546001600160a01b03199081166001600160a01b039384161790915593909101516002909201805490931691161790558251600690849083908110620001155762000115620002ea565b602090810291909101810151518254600181018455600093845291909220015580620001418162000300565b91505062000060565b50505062000328565b634e487b7160e01b600052604160045260246000fd5b604051606081016001600160401b03811182821017156200018e576200018e62000153565b60405290565b604051601f8201601f191681016001600160401b0381118282101715620001bf57620001bf62000153565b604052919050565b80516001600160a01b0381168114620001df57600080fd5b919050565b6000806040808486031215620001f957600080fd5b83516001600160401b03808211156200021157600080fd5b818601915086601f8301126200022657600080fd5b81516020828211156200023d576200023d62000153565b6200024d818360051b0162000194565b8281528181019350606092830285018201928a8411156200026d57600080fd5b948201945b83861015620002cc5780868c0312156200028c5760008081fd5b6200029662000169565b86518152620002a7848801620001c7565b84820152620002b8888801620001c7565b818901528552948501949382019362000272565b509650620002dc888201620001c7565b955050505050509250929050565b634e487b7160e01b600052603260045260246000fd5b6000600182016200032157634e487b7160e01b600052601160045260246000fd5b5060010190565b6136dc80620003386000396000f3fe608060405260043610620000855760003560e01c8063904194a31162000054578063904194a314620001385780639ead722214620001aa578063aa6ca80814620001cf578063e585769b14620001f657600080fd5b806312065fe0146200008a5780631a2300fc14620000ad578063263fc8a814620000d45780633887f9911462000108575b600080fd5b3480156200009757600080fd5b50475b6040519081526020015b60405180910390f35b348015620000ba57600080fd5b50620000c56200021d565b604051620000a4919062000a73565b348015620000e157600080fd5b50620000f9620000f336600462000b2c565b6200038b565b604051620000a4919062000b99565b6200011f6200011936600462000c4f565b62000401565b6040516001600160a01b039091168152602001620000a4565b3480156200014557600080fd5b50620001846200015736600462000cd7565b60056020526000908152604090208054600182015460029092015490916001600160a01b03908116911683565b604080519384526001600160a01b039283166020850152911690820152606001620000a4565b348015620001b757600080fd5b506200009a620001c936600462000cd7565b6200076e565b348015620001dc57600080fd5b50620001e762000790565b604051620000a4919062000cf1565b3480156200020357600080fd5b506200021b6200021536600462000d59565b6200092e565b005b60025460609060009067ffffffffffffffff81111562000241576200024162000bae565b604051908082528060200260200182016040528015620002b257816020015b6200029e604051806080016040528060006001600160a01b031681526020016060815260200160006001600160a01b03168152602001600081525090565b815260200190600190039081620002605790505b50905060005b600254811015620003855760028181548110620002d957620002d962000da0565b60009182526020822001546040805162910a8160e31b815290516001600160a01b03909216926304885408926004808401938290030181865afa15801562000325573d6000803e3d6000fd5b505050506040513d6000823e601f3d908101601f191682016040526200034f919081019062000dc8565b82828151811062000364576200036462000da0565b602002602001018190525080806200037c9062000eaf565b915050620002b8565b50919050565b6001600160a01b03811660009081526020818152604091829020805483518184028101840190945280845260609392830182828015620003f557602002820191906000526020600020905b81546001600160a01b03168152600190910190602001808311620003d6575b50505050509050919050565b600654600090819067ffffffffffffffff81111562000424576200042462000bae565b6040519080825280602002602001820160405280156200044e578160200160208202803683370190505b5060065490915060009067ffffffffffffffff81111562000473576200047362000bae565b6040519080825280602002602001820160405280156200049d578160200160208202803683370190505b5060065490915060009067ffffffffffffffff811115620004c257620004c262000bae565b604051908082528060200260200182016040528015620004ec578160200160208202803683370190505b50905060005b6006548110156200064a576006818154811062000513576200051362000da0565b906000526020600020015484828151811062000533576200053362000da0565b602002602001018181525050600560006006838154811062000559576200055962000da0565b9060005260206000200154815260200190815260200160002060010160009054906101000a90046001600160a01b03168382815181106200059e576200059e62000da0565b60200260200101906001600160a01b031690816001600160a01b0316815250506005600060068381548110620005d857620005d862000da0565b9060005260206000200154815260200190815260200160002060020160009054906101000a90046001600160a01b03168282815181106200061d576200061d62000da0565b6001600160a01b039092166020928302919091019091015280620006418162000eaf565b915050620004f2565b506000853330868686600460009054906101000a90046001600160a01b0316604051620006779062000a11565b62000689979695949392919062000ed7565b604051809103906000f080158015620006a6573d6000803e3d6000fd5b503360008181526020818152604080832080546001808201835582865284862090910180546001600160a01b0389166001600160a01b0319918216811790925581875282865284872080548216831790556002805493840181559096527f405787fa12a823e0f2b7631cc41b3ba8828b3321ca811111fa75cd3aa3bb5ace9091018054909516811790945590519283529394507f30c81f724517486447c665d96eb3b727bd46ba8b8093940f393d11ea4c3f01f1910160405180910390a25095945050505050565b600681815481106200077f57600080fd5b600091825260209091200154905081565b60065460609067ffffffffffffffff811115620007b157620007b162000bae565b604051908082528060200260200182016040528015620007fe57816020015b6040805160608101825260008082526020808301829052928201528252600019909201910181620007d05790505b50905060005b6006548110156200092a576040518060600160405280600560006006858154811062000834576200083462000da0565b90600052602060002001548152602001908152602001600020600001548152602001600560006006858154811062000870576200087062000da0565b9060005260206000200154815260200190815260200160002060010160009054906101000a90046001600160a01b03166001600160a01b031681526020016005600060068581548110620008c857620008c862000da0565b600091825260208083209091015483528201929092526040019020600201546001600160a01b03169052825183908390811062000909576200090962000da0565b60200260200101819052508080620009219062000eaf565b91505062000804565b5090565b6003546001600160a01b031633146200097a5760405162461bcd60e51b815260206004820152600a60248201526937b7363c9030b236b4b760b11b604482015260640160405180910390fd5b604080516060810182528481526001600160a01b039384166020808301918252938516828401908152600087815260059095529284209151825551600180830180549287166001600160a01b03199384161790559251600290920180549290951691161790925560068054928301815590527ff652222313e28459528d920b65115c16c04f3efc82aaedc97be59f3f377c0d3f0155565b6127168062000f9183390190565b60005b8381101562000a3c57818101518382015260200162000a22565b50506000910152565b6000815180845262000a5f81602086016020860162000a1f565b601f01601f19169290920160200192915050565b60006020808301818452808551808352604092508286019150828160051b87010184880160005b8381101562000b0557888303603f19018552815180516001600160a01b0390811685528882015160808a8701819052919062000ad98388018262000a45565b848b0151909216878b015250606092830151929095019190915250938601939086019060010162000a9a565b509098975050505050505050565b6001600160a01b038116811462000b2957600080fd5b50565b60006020828403121562000b3f57600080fd5b813562000b4c8162000b13565b9392505050565b600081518084526020808501945080840160005b8381101562000b8e5781516001600160a01b03168752958201959082019060010162000b67565b509495945050505050565b60208152600062000b4c602083018462000b53565b634e487b7160e01b600052604160045260246000fd5b6040516080810167ffffffffffffffff8111828210171562000bea5762000bea62000bae565b60405290565b604051601f8201601f1916810167ffffffffffffffff8111828210171562000c1c5762000c1c62000bae565b604052919050565b600067ffffffffffffffff82111562000c415762000c4162000bae565b50601f01601f191660200190565b60006020828403121562000c6257600080fd5b813567ffffffffffffffff81111562000c7a57600080fd5b8201601f8101841362000c8c57600080fd5b803562000ca362000c9d8262000c24565b62000bf0565b81815285602083850101111562000cb957600080fd5b81602084016020830137600091810160200191909152949350505050565b60006020828403121562000cea57600080fd5b5035919050565b602080825282518282018190526000919060409081850190868401855b8281101562000d4c57815180518552868101516001600160a01b03908116888701529086015116858501526060909301929085019060010162000d0e565b5091979650505050505050565b60008060006060848603121562000d6f57600080fd5b83359250602084013562000d838162000b13565b9150604084013562000d958162000b13565b809150509250925092565b634e487b7160e01b600052603260045260246000fd5b805162000dc38162000b13565b919050565b6000602080838503121562000ddc57600080fd5b825167ffffffffffffffff8082111562000df557600080fd5b908401906080828703121562000e0a57600080fd5b62000e1462000bc4565b825162000e218162000b13565b8152828401518281111562000e3557600080fd5b83019150601f8201871362000e4957600080fd5b815162000e5a62000c9d8262000c24565b818152888683860101111562000e6f57600080fd5b62000e808287830188870162000a1f565b828601525062000e936040840162000db6565b6040820152606083015160608201528094505050505092915050565b60006001820162000ed057634e487b7160e01b600052601160045260246000fd5b5060010190565b60e08152600062000eec60e083018a62000a45565b6001600160a01b038981166020858101919091529089166040850152838203606085015287518083528882019282019060005b8181101562000f3d5784518352938301939183019160010162000f1f565b5050848103608086015262000f53818962000b53565b9250505082810360a084015262000f6b818662000b53565b91505062000f8460c08301846001600160a01b03169052565b9897505050505050505056fe6080604052600180546001600160a01b0319167342000000000000000000000000000000000000061790553480156200003757600080fd5b5060405162002716380380620027168339810160408190526200005a91620006c7565b60005b845181101562000338576040518060600160405280868381518110620000875762000087620007b8565b60200260200101518152602001858381518110620000a957620000a9620007b8565b60200260200101516001600160a01b03168152602001848381518110620000d457620000d4620007b8565b60200260200101516001600160a01b031681525060056000878481518110620001015762000101620007b8565b602002602001015181526020019081526020016000206000820151816000015560208201518160010160006101000a8154816001600160a01b0302191690836001600160a01b0316021790555060408201518160020160006101000a8154816001600160a01b0302191690836001600160a01b0316021790555090505060405180606001604052808683815181106200019e576200019e620007b8565b60200260200101518152602001858381518110620001c057620001c0620007b8565b60200260200101516001600160a01b03168152602001848381518110620001eb57620001eb620007b8565b60200260200101516001600160a01b031681525060066000868481518110620002185762000218620007b8565b6020908102919091018101516001600160a01b03908116835282820193909352604091820160002084518155908401516001820180546001600160a01b031990811692861692909217905593909101516002909101805490931691161790558451600890869083908110620002915762000291620007b8565b602090810291909101810151825460018101845560009384529190922001558251839082908110620002c757620002c7620007b8565b602002602001015160076000878481518110620002e857620002e8620007b8565b6020026020010151815260200190815260200160002060006101000a8154816001600160a01b0302191690836001600160a01b0316021790555080806200032f90620007ce565b9150506200005d565b50601080546001600160a01b0319166001600160a01b038816179055600262000362888262000885565b50601180546001600160a01b0319166001600160a01b0387161790556008546001600160401b038111156200039b576200039b620004d0565b604051908082528060200260200182016040528015620003c5578160200160208202803683370190505b508051620003dc9160099160209091019062000469565b506008546001600160401b03811115620003fa57620003fa620004d0565b60405190808252806020026020018201604052801562000424578160200160208202803683370190505b5080516200043b91600a9160209091019062000469565b50600080546001600160a01b0319166001600160a01b03929092169190911790555062000951945050505050565b828054828255906000526020600020908101928215620004a7579160200282015b82811115620004a75782518255916020019190600101906200048a565b50620004b5929150620004b9565b5090565b5b80821115620004b55760008155600101620004ba565b634e487b7160e01b600052604160045260246000fd5b604051601f8201601f191681016001600160401b0381118282101715620005115762000511620004d0565b604052919050565b600082601f8301126200052b57600080fd5b81516001600160401b03811115620005475762000547620004d0565b60206200055d601f8301601f19168201620004e6565b82815285828487010111156200057257600080fd5b60005b838110156200059257858101830151828201840152820162000575565b506000928101909101919091529392505050565b80516001600160a01b0381168114620005be57600080fd5b919050565b60006001600160401b03821115620005df57620005df620004d0565b5060051b60200190565b600082601f830112620005fb57600080fd5b81516020620006146200060e83620005c3565b620004e6565b82815260059290921b840181019181810190868411156200063457600080fd5b8286015b8481101562000651578051835291830191830162000638565b509695505050505050565b600082601f8301126200066e57600080fd5b81516020620006816200060e83620005c3565b82815260059290921b84018101918181019086841115620006a157600080fd5b8286015b848110156200065157620006b981620005a6565b8352918301918301620006a5565b600080600080600080600060e0888a031215620006e357600080fd5b87516001600160401b0380821115620006fb57600080fd5b620007098b838c0162000519565b98506200071960208b01620005a6565b97506200072960408b01620005a6565b965060608a01519150808211156200074057600080fd5b6200074e8b838c01620005e9565b955060808a01519150808211156200076557600080fd5b620007738b838c016200065c565b945060a08a01519150808211156200078a57600080fd5b50620007998a828b016200065c565b925050620007aa60c08901620005a6565b905092959891949750929550565b634e487b7160e01b600052603260045260246000fd5b600060018201620007ef57634e487b7160e01b600052601160045260246000fd5b5060010190565b600181811c908216806200080b57607f821691505b6020821081036200082c57634e487b7160e01b600052602260045260246000fd5b50919050565b601f8211156200088057600081815260208120601f850160051c810160208610156200085b5750805b601f850160051c820191505b818110156200087c5782815560010162000867565b5050505b505050565b81516001600160401b03811115620008a157620008a1620004d0565b620008b981620008b28454620007f6565b8462000832565b602080601f831160018114620008f15760008415620008d85750858301515b600019600386901b1c1916600185901b1785556200087c565b600085815260208120601f198616915b82811015620009225788860151825594840194600190910190840162000901565b5085821015620009415787850151600019600388901b60f8161c191681555b5050505050600190811b01905550565b611db580620009616000396000f3fe6080604052600436106100f55760003560e01c80638d7eda321161008f578063b6b55f2511610061578063b6b55f25146102af578063c228e4ef146102c2578063c31c9c07146102e2578063d6bc594214610302578063e585769b1461034a57005b80638d7eda32146101f85780639ead722214610265578063a4874d7714610285578063aa6ca8081461028d57005b8063378f289e116100c8578063378f289e146101625780633fc8cef3146101825780634cd3d654146101ba578063893d20e8146101da57005b8062113e08146100fe578063048854081461012057806312065fe0146100fe578063224e74621461014257005b366100fc57005b005b34801561010a57600080fd5b50475b6040519081526020015b60405180910390f35b34801561012c57600080fd5b5061013561036a565b60405161011791906119b0565b34801561014e57600080fd5b506100fc61015d366004611a02565b61046e565b34801561016e57600080fd5b5061010d61017d366004611a02565b61070b565b34801561018e57600080fd5b506001546101a2906001600160a01b031681565b6040516001600160a01b039091168152602001610117565b3480156101c657600080fd5b5061010d6101d5366004611a02565b610791565b3480156101e657600080fd5b506010546001600160a01b03166101a2565b34801561020457600080fd5b50610240610213366004611a02565b60056020526000908152604090208054600182015460029092015490916001600160a01b03908116911683565b604080519384526001600160a01b039283166020850152911690820152606001610117565b34801561027157600080fd5b5061010d610280366004611a02565b6107b2565b6100fc6107c2565b34801561029957600080fd5b506102a2610909565b6040516101179190611a1b565b6100fc6102bd366004611a02565b610a97565b3480156102ce57600080fd5b5061010d6102dd366004611a02565b610b93565b3480156102ee57600080fd5b506000546101a2906001600160a01b031681565b34801561030e57600080fd5b5061024061031d366004611a9d565b60066020526000908152604090208054600182015460029092015490916001600160a01b03908116911683565b34801561035657600080fd5b506100fc610365366004611abf565b610ba3565b6103a7604051806080016040528060006001600160a01b031681526020016060815260200160006001600160a01b03168152602001600081525090565b6040518060800160405280306001600160a01b03168152602001600280546103ce90611afb565b80601f01602080910402602001604051908101604052809291908181526020018280546103fa90611afb565b80156104475780601f1061041c57610100808354040283529160200191610447565b820191906000526020600020905b81548152906001019060200180831161042a57829003601f168201915b50505091835250506010546001600160a01b03166020820152600354604090910152919050565b6010546001600160a01b031633146104a15760405162461bcd60e51b815260040161049890611b2f565b60405180910390fd5b6040805160608082018352600080835260208084018281528486018381528784526005808452878520600180820180546001600160a01b039081168952600688528b89209a518b559551918a0180549287166001600160a01b031993841617905593516002998a01805491871691831691909117905589519788018a52868852878601878152998801878152968b90529190945294518355955186549082169085161790955590519201805492909316911617905561055e610d81565b805161057291600b91602090910190611909565b5060005b60085481101561070757816008828154811061059457610594611b53565b9060005260206000200154036106f55760006064600b83815481106105bb576105bb611b53565b9060005260206000200154600984815481106105d9576105d9611b53565b90600052602060002001546105ee9190611b7f565b6105fc906305f5e100611ba1565b610607906062611ba1565b6106119190611b7f565b90506106816009838154811061062957610629611b53565b9060005260206000200154600560006008868154811061064b5761064b611b53565b60009182526020808320909101548352820192909252604001902060019081015490546001600160a01b03918216911684610e3a565b506008805461069290600190611bbe565b815481106106a2576106a2611b53565b9060005260206000200154600883815481106106c0576106c0611b53565b60009182526020909120015560088054806106dd576106dd611bd1565b60019003818190600052602060002001600090559055505b806106ff81611be7565b915050610576565b5050565b600081815260076020526040808220548151633fabe5a360e21b8152915183926001600160a01b039092169163feaf968c9160048083019260a09291908290030181865afa158015610761573d6000803e3d6000fd5b505050506040513d601f19601f820116820180604052508101906107859190611c1a565b50919695505050505050565b600981815481106107a157600080fd5b600091825260209091200154905081565b600881815481106107a157600080fd5b6010546001600160a01b031633146107ec5760405162461bcd60e51b815260040161049890611b2f565b60005b600854811015610906576000600560006008848154811061081257610812611b53565b600091825260208083209190910154835282019290925260409081019091206001015490516370a0823160e01b81523060048201526001600160a01b03909116906370a0823190602401602060405180830381865afa158015610879573d6000803e3d6000fd5b505050506040513d601f19601f8201168201806040525081019061089d9190611c6a565b90506108f18160056000600886815481106108ba576108ba611b53565b60009182526020808320909101548352820192909252604001812060019081015490546001600160a01b0391821692911690610e3a565b505080806108fe90611be7565b9150506107ef565b50565b60085460609060009067ffffffffffffffff81111561092a5761092a611c83565b60405190808252806020026020018201604052801561097557816020015b60408051606081018252600080825260208083018290529282015282526000199092019101816109485790505b50905060005b600854811015610a9157604051806060016040528060056000600885815481106109a7576109a7611b53565b9060005260206000200154815260200190815260200160002060000154815260200160056000600885815481106109e0576109e0611b53565b9060005260206000200154815260200190815260200160002060010160009054906101000a90046001600160a01b03166001600160a01b031681526020016005600060088581548110610a3557610a35611b53565b600091825260208083209091015483528201929092526040019020600201546001600160a01b031690528251839083908110610a7357610a73611b53565b60200260200101819052508080610a8990611be7565b91505061097b565b50919050565b6010546001600160a01b03163314610ac15760405162461bcd60e51b815260040161049890611b2f565b6001546040516370a0823160e01b815233600482015282916001600160a01b0316906370a0823190602401602060405180830381865afa158015610b09573d6000803e3d6000fd5b505050506040513d601f19601f82011682018060405250810190610b2d9190611c6a565b1015610b735760405162461bcd60e51b81526020600482015260156024820152746e6f7420656e6f756768206d696e6572616c73202160581b6044820152606401610498565b600154610b8b906001600160a01b0316333084610fb7565b6109066110c1565b600a81815481106107a157600080fd5b6010546001600160a01b03163314610bcd5760405162461bcd60e51b815260040161049890611b2f565b604080516060810182528481526001600160a01b03808516602080840182815286841685870190815260008a81526005845287812096518088559251600180890180549289166001600160a01b031993841617815593516002998a018054918a1691841691909117815596835260069095529781209283559054828401805489169187169190911790559254940180549095169390921692909217909255600880549283018155908190527ff3f7a9fe364faab93b216da50a3214154f22a0a2b415b23a84c8169e8b636ee39091018490555467ffffffffffffffff811115610cb857610cb8611c83565b604051908082528060200260200182016040528015610ce1578160200160208202803683370190505b508051610cf691600991602090910190611909565b5060085467ffffffffffffffff811115610d1257610d12611c83565b604051908082528060200260200182016040528015610d3b578160200160208202803683370190505b508051610d5091600a91602090910190611909565b5060009283526007602052604090922080546001600160a01b0319166001600160a01b039093169290921790915550565b60085460609067ffffffffffffffff811115610d9f57610d9f611c83565b604051908082528060200260200182016040528015610dc8578160200160208202803683370190505b50905060005b60085460ff82161015610e3657610e0460088260ff1681548110610df457610df4611b53565b906000526020600020015461070b565b828260ff1681518110610e1957610e19611b53565b602090810291909101015280610e2e81611c99565b915050610dce565b5090565b60008054610e539085906001600160a01b0316876111ae565b60408051610100810182526001600160a01b0380871682528516602080830191909152610bb882840181905230606084015242608084015260a0830189905260c08301869052600060e08401528351808501909452601a84527f616d6f756e7420696e20202573202025732066726f6d202025730000000000009184019190915291610ee1908887896112ae565b610ee96112fd565b6000546040805163414bf38960e01b815283516001600160a01b0390811660048301526020850151811660248301529184015162ffffff1660448201526060840151821660648201526080840151608482015260a084015160a482015260c084015160c482015260e0840151821660e482015291169063414bf38990610104016020604051808303816000875af1158015610f88573d6000803e3d6000fd5b505050506040513d601f19601f82011682018060405250810190610fac9190611c6a565b979650505050505050565b604080516001600160a01b0385811660248301528481166044830152606480830185905283518084039091018152608490920183526020820180516001600160e01b03166323b872dd60e01b179052915160009283929088169161101b9190611cb8565b6000604051808303816000865af19150503d8060008114611058576040519150601f19603f3d011682016040523d82523d6000602084013e61105d565b606091505b50915091508180156110875750805115806110875750808060200190518101906110879190611cd4565b6110b95760405162461bcd60e51b815260206004820152600360248201526229aa2360e91b6044820152606401610498565b505050505050565b6110c9610d81565b80516110dd91600b91602090910190611909565b506110e6611338565b600c556000600e8190556060906110fb611392565b600854600e5461110b9190611b7f565b600f556111178261154f565b6001546040516370a0823160e01b81523060048201526001600160a01b03909116906370a0823190602401602060405180830381865afa15801561115f573d6000803e3d6000fd5b505050506040513d601f19601f820116820180604052508101906111839190611c6a565b600d5581516008546111959190611bbe565b600d546111a29190611b7f565b905061070782826116e6565b604080516001600160a01b038481166024830152604480830185905283518084039091018152606490920183526020820180516001600160e01b031663095ea7b360e01b179052915160009283929087169161120a9190611cb8565b6000604051808303816000865af19150503d8060008114611247576040519150601f19603f3d011682016040523d82523d6000602084013e61124c565b606091505b50915091508180156112765750805115806112765750808060200190518101906112769190611cd4565b6112a75760405162461bcd60e51b8152602060048201526002602482015261534160f01b6044820152606401610498565b5050505050565b6112f7848484846040516024016112c89493929190611cf6565b60408051601f198184030181529190526020810180516001600160e01b0316632f515bd760e11b1790526117da565b50505050565b60408051808201909152600c81526b39bbb0b83937baba32b9101d60a11b602082015260005461133691906001600160a01b03166117e3565b565b6000807313e3ee699d1909e989722e753853ae30b17e08c590506000816001600160a01b031663feaf968c6040518163ffffffff1660e01b815260040160a060405180830381865afa158015610761573d6000803e3d6000fd5b60005b60085481101561151f5760056000600883815481106113b6576113b6611b53565b600091825260208083209190910154835282019290925260409081019091206001015490516370a0823160e01b81523060048201526001600160a01b03909116906370a0823190602401602060405180830381865afa15801561141d573d6000803e3d6000fd5b505050506040513d601f19601f820116820180604052508101906114419190611c6a565b6009828154811061145457611454611b53565b90600052602060002001819055506305f5e100600b828154811061147a5761147a611b53565b90600052602060002001546009838154811061149857611498611b53565b90600052602060002001546114ad9190611ba1565b6114b79190611b7f565b600a82815481106114ca576114ca611b53565b9060005260206000200181905550600a81815481106114eb576114eb611b53565b9060005260206000200154600e60008282546115079190611d2f565b9091555081905061151781611be7565b915050611395565b506115476040518060400160405280600681526020016575706461746560d01b815250611828565b6113366112fd565b6000805b6008548110156116b857600f54600a828154811061157357611573611b53565b906000526020600020015411156116a657600a600f546115939190611b7f565b600f54600a83815481106115a9576115a9611b53565b90600052602060002001546115be9190611bbe565b11156116a65760006014600f546115d59190611b7f565b90506000600c54826115e79190611b7f565b905060006064600b858154811061160057611600611b53565b9060005260206000200154846116169190611b7f565b611624906305f5e100611ba1565b61162f906062611ba1565b6116399190611b7f565b905061165682600560006008888154811061064b5761064b611b53565b506008848154811061166a5761166a611b53565b9060005260206000200154868660ff168151811061168a5761168a611b53565b60209081029190910101528461169f81611c99565b9550505050505b806116b081611be7565b915050611553565b506116de604051806040016040528060048152602001631cd95b1b60e21b815250611828565b6107076112fd565b60005b6008548110156117b55761171a6008828154811061170957611709611b53565b90600052602060002001548461186b565b6117a3576000606461172d846062611ba1565b6117379190611b7f565b90506117416118b6565b6117a083600160009054906101000a90046001600160a01b0316600560006008878154811061177257611772611b53565b600091825260208083209091015483528201929092526040019020600101546001600160a01b031684610e3a565b50505b806117ad81611be7565b9150506116e9565b506116de6040518060400160405280600381526020016262757960e81b815250611828565b610906816118e8565b61070782826040516024016117f9929190611d42565b60408051601f198184030181529190526020810180516001600160e01b031663319af33360e01b1790526117da565b6109068160405160240161183c9190611d6c565b60408051601f198184030181529190526020810180516001600160e01b031663104c13eb60e21b1790526117da565b6000805b82518110156118af578383828151811061188b5761188b611b53565b60200260200101510361189d57600191505b806118a781611be7565b91505061186f565b5092915050565b6040805160048152602481019091526020810180516001600160e01b03166351973ec960e01b179052611336906117da565b60006a636f6e736f6c652e6c6f679050600080835160208501845afa505050565b828054828255906000526020600020908101928215611944579160200282015b82811115611944578251825591602001919060010190611929565b50610e369291505b80821115610e36576000815560010161194c565b60005b8381101561197b578181015183820152602001611963565b50506000910152565b6000815180845261199c816020860160208601611960565b601f01601f19169290920160200192915050565b60208152600060018060a01b038084511660208401526020840151608060408501526119df60a0850182611984565b905081604086015116606085015260608501516080850152809250505092915050565b600060208284031215611a1457600080fd5b5035919050565b602080825282518282018190526000919060409081850190868401855b82811015611a7457815180518552868101516001600160a01b039081168887015290860151168585015260609093019290850190600101611a38565b5091979650505050505050565b80356001600160a01b0381168114611a9857600080fd5b919050565b600060208284031215611aaf57600080fd5b611ab882611a81565b9392505050565b600080600060608486031215611ad457600080fd5b83359250611ae460208501611a81565b9150611af260408501611a81565b90509250925092565b600181811c90821680611b0f57607f821691505b602082108103610a9157634e487b7160e01b600052602260045260246000fd5b6020808252600a908201526937b7363c9037bbb732b960b11b604082015260600190565b634e487b7160e01b600052603260045260246000fd5b634e487b7160e01b600052601160045260246000fd5b600082611b9c57634e487b7160e01b600052601260045260246000fd5b500490565b8082028115828204841417611bb857611bb8611b69565b92915050565b81810381811115611bb857611bb8611b69565b634e487b7160e01b600052603160045260246000fd5b600060018201611bf957611bf9611b69565b5060010190565b805169ffffffffffffffffffff81168114611a9857600080fd5b600080600080600060a08688031215611c3257600080fd5b611c3b86611c00565b9450602086015193506040860151925060608601519150611c5e60808701611c00565b90509295509295909350565b600060208284031215611c7c57600080fd5b5051919050565b634e487b7160e01b600052604160045260246000fd5b600060ff821660ff8103611caf57611caf611b69565b60010192915050565b60008251611cca818460208701611960565b9190910192915050565b600060208284031215611ce657600080fd5b81518015158114611ab857600080fd5b608081526000611d096080830187611984565b6020830195909552506001600160a01b0392831660408201529116606090910152919050565b80820180821115611bb857611bb8611b69565b604081526000611d556040830185611984565b905060018060a01b03831660208301529392505050565b602081526000611ab8602083018461198456fea2646970667358221220751c7a2d1de6a30cb297e1ecdd6782909e2b8cbe45ea12923059fdef057668d564736f6c63430008130033a2646970667358221220c7992893caa7841d0b1deed7b35c33bfc7d66abb9e7172c308dd789031358d8564736f6c63430008130033","linkReferences":{}},"methodIdentifiers":{"addToken(bytes32,address,address)":"e585769b","createBag(string)":"3887f991","getAllBags()":"1a2300fc","getBagsFromOwner(address)":"263fc8a8","getBalance()":"12065fe0","getTokens()":"aa6ca808","tokenList(uint256)":"9ead7222","tokens(bytes32)":"904194a3"},"id":1}