{"abi":[{"type":"function","name":"getDerivedSvalue","inputs":[{"name":"pair_id_1","type":"uint256","internalType":"uint256"},{"name":"pair_id_2","type":"uint256","internalType":"uint256"},{"name":"operation","type":"uint256","internalType":"uint256"}],"outputs":[{"name":"","type":"tuple","internalType":"struct ISupraSValueFeed.derivedData","components":[{"name":"roundDifference","type":"int256","internalType":"int256"},{"name":"derivedPrice","type":"uint256","internalType":"uint256"},{"name":"decimals","type":"uint256","internalType":"uint256"}]}],"stateMutability":"view"},{"type":"function","name":"getSvalue","inputs":[{"name":"_pairIndex","type":"uint256","internalType":"uint256"}],"outputs":[{"name":"","type":"tuple","internalType":"struct ISupraSValueFeed.priceFeed","components":[{"name":"round","type":"uint256","internalType":"uint256"},{"name":"decimals","type":"uint256","internalType":"uint256"},{"name":"time","type":"uint256","internalType":"uint256"},{"name":"price","type":"uint256","internalType":"uint256"}]}],"stateMutability":"view"},{"type":"function","name":"getSvalues","inputs":[{"name":"_pairIndexes","type":"uint256[]","internalType":"uint256[]"}],"outputs":[{"name":"","type":"tuple[]","internalType":"struct ISupraSValueFeed.priceFeed[]","components":[{"name":"round","type":"uint256","internalType":"uint256"},{"name":"decimals","type":"uint256","internalType":"uint256"},{"name":"time","type":"uint256","internalType":"uint256"},{"name":"price","type":"uint256","internalType":"uint256"}]}],"stateMutability":"view"},{"type":"function","name":"getTimestamp","inputs":[{"name":"_tradingPair","type":"uint256","internalType":"uint256"}],"outputs":[{"name":"","type":"uint256","internalType":"uint256"}],"stateMutability":"view"}],"bytecode":{"object":"0x608060405234801561001057600080fd5b50610365806100206000396000f3fe608060405234801561001057600080fd5b506004361061004c5760003560e01c806389b94ea214610051578063a767041c146100a0578063b633620c146100d5578063f48bf177146100f7575b600080fd5b61006461005f3660046101a7565b610118565b60405161009791908151815260208083015190820152604080830151908201526060918201519181019190915260800190565b60405180910390f35b6100b36100ae3660046101c0565b61017c565b6040805182518152602080840151908201529181015190820152606001610097565b6100e96100e33660046101a7565b50600090565b604051908152602001610097565b61010b610105366004610202565b50606090565b60405161009791906102c0565b6101436040518060800160405280600081526020016000815260200160008152602001600081525090565b816007036101775760405180608001604052806002815260200160128152602001600a8152602001600b8152509050919050565b919050565b6101a060405180606001604052806000815260200160008152602001600081525090565b9392505050565b6000602082840312156101b957600080fd5b5035919050565b6000806000606084860312156101d557600080fd5b505081359360208301359350604090920135919050565b634e487b7160e01b600052604160045260246000fd5b6000602080838503121561021557600080fd5b823567ffffffffffffffff8082111561022d57600080fd5b818501915085601f83011261024157600080fd5b813581811115610253576102536101ec565b8060051b604051601f19603f83011681018181108582111715610278576102786101ec565b60405291825284820192508381018501918883111561029657600080fd5b938501935b828510156102b45784358452938501939285019261029b565b98975050505050505050565b6020808252825182820181905260009190848201906040850190845b8181101561032357610310838551805182526020810151602083015260408101516040830152606081015160608301525050565b92840192608092909201916001016102dc565b5090969550505050505056fea26469706673582212208e0c6da61651e7ed47967f93acc17b853f0cc5042dec9ee5d9a3aaa0c1de1a7e64736f6c63430008130033","linkReferences":{}},"methodIdentifiers":{"getDerivedSvalue(uint256,uint256,uint256)":"a767041c","getSvalue(uint256)":"89b94ea2","getSvalues(uint256[])":"f48bf177","getTimestamp(uint256)":"b633620c"},"id":7}